:10400000FC7F0020D9DA0000B5600000C560000028
:1040100000000000000000000000000000000000A0
:10402000000000000000000000000000C1DA0000F5
:104030000000000000000000C1DA00002DDB0000DD
:10404000C1DA0000C1DA0000C1DA0000C1DA000004
:10405000C1DA0000C1DA0000055D0000C5DA000029
:10406000C1DA00000DDA0000C1DA0000C1DA000098
:10407000C1DA0000C1DA00001DDA0000C1DA000078
:10408000C1DA0000C1DA0000C1DA0000C1DA0000C4
:10409000FDD30000C1DA0000C1DA0000C1DA00007F
:1040A000C1DA0000C1DA0000C1DA0000C1DA0000A4
:1040B0000000000010B5064C2378002B07D1054BFB
:1040C000002B02D0044800E000BF0123237010BD84
:1040D0003002002000000000981A010008B5084BCB
:1040E000002B03D00748084900E000BF07480368D9
:1040F000002B03D0064B002B00D0984708BDC046CC
:1041000000000000981A0100340200202402002060
:104110000000000008B5034801F034FA024800F03E
:104120002BF808BD900700204C02002010B506486F
:1041300000F05AFF002806D0044C201C00F02CF898
:10414000201C00F043F810BD900700204C02002016
:1041500010B5054C201C00F00DF8201C0349044A42
:104160000BF0D8FD10BDC0464C0200207741000086
:10417000000000207047704710B50021041CC022C9
:104180000BF03DFE231CC03303221A6001229A600B
:10419000CC343A23237010BD10B5094C0949201CBA
:1041A00004F052F9201C9038042101F0EDFF0028A2
:1041B00004D0201C5838044909F0A0F810BDC046AE
:1041C00020080020E4D800000400002010B5074CAF
:1041D000201C04F079F9201C103800F0D1F80449B3
:1041E000021C201C0AF024F910BDC046A0070020C4
:1041F00020070100031C007C0822104004D0D86A6C
:104200005B6AC01A00D501487047C046FFFFFF7FB8
:1042100008B5103007F0AAFC08BD08B5103007F04B
:10422000E9FA08BD08B5103007F0C6F908BD13B5A6
:104230006C4607341030211C012207F0FBF80128DE
:1042400001D1207801E00120404216BD08B58C2341
:10425000DB00C01808F0A9FC08BD08B58C23DB0002
:10426000C01808F031FD08BD10B58C24E400001919
:1042700008F0E9FC10BD10B58C24E400001908F02A
:10428000A1FD10BD10B5034B041C036002F064FED9
:10429000201C10BDE00E010010B5041CFFF7F2FF5A
:1042A000201C0AF08BF8201C10BD07B56B46D97195
:1042B00007331030191C012207F058FC0EBD30B531
:1042C000051C8BB001A80A1C0024291C01230470C2
:1042D000447007F0DEFA0BB030BD000001787022A8
:1042E0000023114202D0024B18600123181C7047B2
:1042F0003C0A00200023037443744360FA239B00AC
:104300008360014B036070476807010070B5031CB0
:104310000A1C1033103270CA70C370CA70C370CADE
:1043200070C34B688C68C96843608460C16070BDAD
:1043300073B5041C3C34051C201C04F0CBF8061C8F
:10434000201C04F0D7F82B1C00210096019010339C
:10435000201C0A1C02F08CFC73BD38B509F0FAFB76
:10436000041C09F0F7FB4443012009F0ADFD051CD6
:10437000022009F0A9FD684360400AF071FB38BDD6
:1043800008B5C2225200825C031CFC330A2151434F
:10439000586E0BF00FFCC0B208BD7047F0B53C4B37
:1043A0003C4F9DB0FC18061C0D1C201C3A49019284
:1043B000FFF785FF002808D10FAB18705870211C3B
:1043C000181C354A012307F031FB02A8FFF792FFC2
:1043D0002F4B3249FF18381CFFF771FF041E17D10D
:1043E0000FA8FFF787FF2D4A6323391C13A807F096
:1043F00050FA0FA902A8FFF789FF211C06A807F0B1
:104400000DF9201C02A906F033FC06A807F03AFAC1
:104410000FA8FFF76FFF1F491D4B204AC91813A8AB
:10442000632307F036FA0FA902A8FFF76FFF0021F8
:1044300006A807F0F3F802A806F012FC291C431C9A
:10444000019A301C06F0B0FB0021041C06A807F0FE
:10445000E5F8631C11D1002002A906F009FC301C0C
:10446000291C019A002306F09FFB041C431C04D165
:1044700006A807F007FA002007E0201C02A906F0B2
:10448000F7FB06A807F0FEF901201DB0F0BDC046FD
:104490003C0400001C0300200C0A0100100A01006B
:1044A000F0B5C8235B00C35C87B0051C002B69D046
:1044B00000260B2B02D80C26F61AF6B22C1C103450
:1044C000201C012103F00CFB0021201C03F0F6FE50
:1044D000201C04F00FF8071C201C03F0FBFA0390CB
:1044E000201C03F0F7FF0490201C03F0F3FA039B59
:1044F000F219033A03300327D21A00B212B2049B16
:1045000000900197201C002103F0A0FA1E49201CF6
:1045100003F0D4FE201C03F0EDFF0390201C03F0F9
:10452000D9FA0490201C03F0D5FF0590201C03F05D
:10453000D1FA039BC019F218049B033AD21A00B2B5
:10454000059B12B2002100900197201C03F073FB21
:10455000201C03F0CFFF071C201C03F0BBFAF2194C
:10456000013A121A12B2201C042103F0F9FEC623EC
:104570005B00E958201C09F03FFFC8235B00EA5CA0
:10458000013AEA5407B0F0BDFFFF000010B500216A
:10459000041C3C3003F068FE5A23FF33E01801F09E
:1045A0006DFD10BDF7B50126041C00960196502143
:1045B00040220023103004F09BFF201C1E211F22EC
:1045C00000233C3001F020FE201C042200960196BE
:1045D00002210023903004F08BFF201CBC30FFF739
:1045E00089FE271C231C86210025F033B83749009B
:1045F0001D705D706018BD64FFF77CFE8422A021F1
:1046000052004900A31862184221FF311570621848
:1046100015709D64B822B623B3405200E654A0182A
:1046200008212622522301F093FAC9237242B34093
:10463000201CE252FEBD08B5032106F087FA08BD32
:10464000F0B5061C38369FB0071C301C08F0BAFEC7
:10465000C64B19A91B88C64A0A93C64B1B880B93E5
:10466000C54B1B880C93C54B1B880D93C44B1B7803
:104670000E93C44B1B780F93C34B1B681093C34B13
:104680001B781193C24B1B7812930B1C31CA31C398
:10469000B82464003C1903CA03C3201C069401F02B
:1046A000BFFA069801F0C4F90024E5B20698039514
:1046B00001F0B2FAB74BE35C834206D2039B0134AC
:1046C0000133DBB20393052CEFD13C1C3C34201C9E
:1046D000002103F0F3FD0C2500210A1CA023201C5F
:1046E000009502F0E9F8201CAB4903F0E7FD002239
:1046F000AA4B201C282103F079FB381C1030A84954
:10470000089003F037FE9E4B02221A709D4B002248
:10471000201CA4491A7003F0D1FD201C03F0EAFE0E
:1047200085420CDA201C03F0D5FE0221031C2AB2BC
:104730000091201C002102F0BFF80435EDE79949F3
:10474000201C03F0BBFD201C03F0C4FE031C0E253F
:10475000403B1BB2202128220095201C02F0ACF81F
:10476000201C03F0B7FE031C2C3B12201BB2362288
:1047700000901621201C02F09FF88B49201C03F0AA
:104780009DFD201C03F0A6FE031C1221303B1BB232
:1047900036220091201C182102F08EF88149201C3D
:1047A00003F08CFD201C03F095FE031C403B00959C
:1047B0001BB20025201C2021482202F07DF807951D
:1047C0000125059500250995049509F0BDF9099D78
:1047D000401B2828F9D9301C08F0AEFD09F0B4F9C7
:1047E0000990381C01F086FC079D06980135079555
:1047F00001F016FA381C072101F0CEFC00280BD17D
:10480000381C052101F0C8FC002805D1381C062100
:1048100001F0C2FC002821D0301C08F0D9FD534B18
:104820000A9C1C800B9D534B0C9C1D80524B0D9D74
:104830001C80524B0E9C1D80514B0F9D1C70514B88
:10484000109C1D70504B119D1C60504B129C1D7094
:104850004F4B1C70FFF7A1FD1FB0F0BD381C0721A6
:10486000192201F0A3FC002802D0381CFFF78EFEAD
:10487000381C0021082201F0A1FC00280BD0049D67
:1048800001350495042D02DC0125059503E0012581
:10489000059500250495381C0321082201F08EFCA3
:1048A00000280AD0049D013D049502D301250595F9
:1048B00003E0012505950425049507980A210BF0CE
:1048C0001DFA201C042903DC374903F0F7FC03E040
:1048D0003149354A03F028FD244D1C232B80254DFA
:1048E0003A2028803149201C09F086FD1F492823E1
:1048F0003A220B802A80201C27492B4A03F014FD02
:10490000201C2549284A03F00FFD049D042D00D9E1
:1049100014E1281C0BF03AF9030E7AC3D300381CBB
:10492000042101F031FC002800D107E1381CFFF719
:104930002DFE03E1381C042101F02EFC002843D099
:10494000301C08F039FD002832D0301C08F02EFD54
:10495000301C08F0E9FC842149007818002201216C
:10496000012506F07FFC05952EE0C0462C0A0020AC
:1049700098070100140A0020280A0020120A0020CB
:10498000240A0020DB000020180A0020100A002062
:10499000250A0020EC090100FFFF00003C0C01008B
:1049A000700F01006852000068CC00001E0A010070
:1049B000301C08F0F5FC84214900781801210A1CFC
:1049C000012506F04FFC0595381C0221042201F058
:1049D000F5FB002805D0301C08F00AFD072800D898
:1049E00055E1381C0121042201F0E8FB002800D128
:1049F000A4E0301C08F0FCFC002800D19EE0301C34
:104A000008F0DAFC051E00D098E058E1381C0421BB
:104A100001F0C2FB002800D190E0E448FFF70BFE54
:104A200015AD011C201C09F0E7FCE1490E22281CF1
:104A30000BF0DCF9281C04210522FFF7AFFC00284D
:104A400007D04223AB7208985023291C2B7304F023
:104A500029FCB62300225B00FA54D64D904208D0C0
:104A6000201CD549D54A03F05FFC28232B80D4486D
:104A700007E0201CD349D14A03F056FC2823D24832
:104A80002B80FFF7D8FD011C201C09F0B5FCFA2093
:104A900009F092F80122B6239340FA5452E0381CF0
:104AA000042101F079FB002800D01EE1381C04210C
:104AB000192201F07BFB002800D016E13EE0381CF3
:104AC000042101F069FB002800D0B5E1381C022167
:104AD000042201F073FB002800D0ADE1381C012155
:104AE000042201F06BFB002818D0039D002D04D098
:104AF0002B1C013BDBB2039301E004250395B34B70
:104B0000039D0698595D01F05FF8842149007818EB
:104B1000039A0421012506F0A5FB059500250698BA
:104B200001F050F8854209D2FF23291C0093069812
:104B30001A1C013501F023F8EDB2F0E7059D002DB8
:104B400000D19EE09B4DA2494A2328200B80A14A18
:104B500028809A49201C03F0E7FB049805210630C1
:104B60000BF0CCF889006A4664318858032105F0BF
:104B7000EDFF011C201C09F03FFC95483A21282339
:104B800001808E4A201C94492B8003F0CDFB049AAF
:104B90006946930064335858032105F0D7FF011C80
:104BA000201C09F029FC8D49201C09F025FC201C43
:104BB000824A894903F0B8FB854A04983A23138056
:104BC000012806D0042842D12B88303B2B800025B9
:104BD00019E02B88301C203B2B8008F0EDFB0028CF
:104BE00000D044E1301C08F003FC002814D13EE161
:104BF0007949724A03F098FB201C7949013509F084
:104C0000FBFB042D23D00399201CA942F0DC714941
:104C10006A4A03F089FBEFE7201C6F49674A03F0FB
:104C200083FB201C6F4909F0E7FB301C08F0E0FB18
:104C3000062804D9201C6349604A03F075FB301C28
:104C400008F0D6FB0A22011C201C09F058FC594B25
:104C500028221A805E4B2A221A80201C5D4A57495E
:104C600003F062FB0498052104300BF047F819AB00
:104C70008900C858032105F069FF011C201C09F0B8
:104C8000BBFB0698002500F0D3FE05959DE5301C82
:104C900008F0AEFB411CC9B2301C08F09FFB301C71
:104CA00008F0A6FB84256D00021C0021781906F08F
:104CB000D9FA0125301C08F037FB059591E6301C28
:104CC00008F096FB411EC9B2301C08F087FB301C6F
:104CD00008F08EFB84214900021C7818291C06F07C
:104CE000C1FA301C08F020FB2CE73F48FFF7A3FC7B
:104CF00015AD011C201C09F07FFB2D490E22281C3C
:104D00000BF074F804210522281CFFF747FB192239
:104D100005900421381C01F049FA059A1390002AE5
:104D20001DD01398002810D14223AB7250232B734F
:104D3000C2235B00FA20F95C80000AF089FF03239C
:104D40005843C9235B00F85204E00122C9235242B0
:104D50005B00FA52089815A904F091FA0590B6255F
:104D600005996D0000237B55994250D01F4B139D30
:104D700001221A70002D3DD1FA2008F01DFF0D4DC3
:104D800028231B482B80FFF756FC011C201C09F030
:104D900033FBFA2008F010FF0122B6239340FA54A7
:104DA000301C08F015FB0A9C2C803BE51C08010018
:104DB000280A01002C0A00206886000068CC000048
:104DC000A40C0100E4D80000780E0100EC090100F9
:104DD000140A002068520000FFFF0000ED0A0100E5
:104DE000200A0100220A0100040801008C070020AB
:104DF000240C01000A2008F0DFFE381C01F07AF9CB
:104E0000381C042101F0C8F90028F3D0B4E71D498B
:104E1000201C1D4A03F088FA1C4B28221C481A80CB
:104E2000FFF709FC011C201C09F0E6FAFA2008F043
:104E3000C3FE01237B5585E6039B04250133DBB2CA
:104E400003930398002385425B415B421840114B5A
:104E50000390195C069800F0B7FE84214900781889
:104E6000039A291C012506F0FDF9059536E6201C5C
:104E70000949054A03F058FA201C084909F0BCFA10
:104E8000E5E6C046E4D8000068CC00002C0A00200B
:104E9000780E0100EC09010068520000250A0100AB
:104EA000F0B507218BB01922041C01F07FF900280E
:104EB00002D0201CFFF76AFBC9256D00635B1AB2A4
:104EC000013201D0013B6353201C072101F064F93A
:104ED000002806D1635F002B6ED1384B1B78002B66
:104EE0006AD0364A1378002B63D0354B354A1B887D
:104EF000251C0093344B12881B8838350293334BA2
:104F0000281C1B8801920393314B261C1B781036FA
:104F10000493304B1B7805932F4B1B6806932F4B44
:104F20001B7807932E4B1B78089308F04BFA281C2C
:104F300008F042FA0990281C08F032FA2949301C7E
:104F400003F018FAB8225200A718381C00F068FEC7
:104F5000381C00F06DFD301C012104F09BF9174A4C
:104F60000023201C1370FFF7E3F9099B144F164E22
:104F7000002B02D1281C08F019FA281C08F028FA86
:104F8000009A104B3A80019A1A80029B039A338050
:104F90000E4B1A800E4B049A1A700E4B059A1A701B
:104FA0000D4B069A1A600D4B079A1A700C4B089A13
:104FB0001A70201CFFF744FB0BB0F0BD8C070020DB
:104FC0002C0A0020140A0020280A0020120A0020BF
:104FD000240A0020DB000020180A0020100A00200C
:104FE000250A0020700F0100F0B5C4268BB07600B2
:104FF000041C855908F0A8FDC2277F00E35D281A2C
:10500000251CFC35984202D9E86E00287ED1EE6E50
:105010000020864200D08AE0201CFFF741FF201CC0
:10502000FFF73EFA05F076FD201C383008F084F9D1
:10503000201CFFF77DF9211C9031081C039103F01F
:1050400059FAC0B20590039803F044FA3949C0B246
:105050000490143108A808220AF0C8FE08AF059988
:105060008E4227D200250498EBB283421ED229B289
:1050700032B2039804F02AF905F0D3FD0102090EBB
:10508000030407AA8C461B0E107053709170DBB29C
:10509000C2B260460293C3B2795D0093B8235B004D
:1050A000E018029B00F06BFD0135DCE70136F6B23B
:1050B0003F18D4E7204B251C1B787134FC35FF3496
:1050C000002B15D0286E0A210AF0B8FD08AB042980
:1050D00007D8197800230093201CFF2200F04FFD11
:1050E00006E0197800230093201C1A1C00F047FDED
:1050F000201C00F09DFC201C00F092FD08F02AFD11
:10510000AA6EE866801A6866002010E008F01CFDB0
:10511000E35DC0182B6EA05101332B660023EB66B4
:1051200008F018FDA866201C00F0E4FF01200BB079
:10513000F0BDC046980701008C07002008B508485C
:10514000B6235B00C35C002B09D0031CFC33DA6E72
:10515000002A02D19B6E002B01D0FFF745FF08BD4E
:10516000900700200D4B0E49002210B55A540D49EE
:1051700019205A540C490D4C5A540D49DA7158549F
:105180000C49201C5A540C4A1A60FFF70BFA201CD9
:105190000A490B4A0AF0BEFD10BDC0461C030020A0
:1051A0003C0400003D04000064040000900700205F
:1051B000660400006904000088070100295200000D
:1051C0000000002070B501238CB000930193061CF1
:1051D0000D1C141C4E210A2202A804F089F902A811
:1051E00003F072F9022102A8494200220C4B03F09D
:1051F0004DFD0C4B221C1B784E245C43291C009453
:105200000A2459435A436343301C0193103002ABC4
:1052100004F058FA02A803F069FA0CB070BDC04659
:105220003C0C0100240A0020B8235B0010B5041CCC
:10523000C01800F097FB201C903003F057FA201C98
:105240003C30FFF71FF8201C103003F04FFA201CF1
:1052500010BD000070B596B0041C244902A804F0EB
:105260002DF9201CFFF7C0FE201C002238302049F9
:1052700008F006F81F4B01221A701825201CFFF7B2
:10528000B3FE0028FAD0201C013D103003F01CF9B9
:10529000EEB20123009301930A22F5B20CA84E212D
:1052A00004F026F96BB200220A2B01DC0A3EF2B2AE
:1052B00052B2201C0221261CFFF784FF90360021E9
:1052C000301C0A1C02AB04F055F90CA803F00EFACE
:1052D000002DD3D1301C03F0F7F8201CFFF784FE1B
:1052E00002A803F003FA16B070BDC046D40C01004A
:1052F00034080100240A0020F0B5B7B00390807E86
:10530000039A0990128C039B07925B8C90490AAC1C
:105310000893904B01251C311022201C1D700AF0AF
:1053200065FD8D4E8D4800233618301C211C2374DA
:10533000FEF7C5FF031C6B40DBB205900693002807
:1053400036D1301C8649FEF7BAFF002839D085498E
:10535000201C0AF039FE0FA8FEF7CCFF13A8311C61
:10536000221C2B1C06F095FA1CA8FEF7C3FF29A8E7
:10537000FEF7C0FF13A901222DA806F0FAF91CA818
:1053800029A9FEF7C3FF037C002B1AD020A80378BD
:105390001A07ECD50BA90D2206F000FD0AA87249E8
:1053A0000AF021FE002800D1C7E0012306930593EF
:1053B00003980123009310300799089A0AAB03F071
:1053C000EFFE29A8694904F079F80398FFF70CFE6D
:1053D0000028FAD0039C059A1034201C002A02D021
:1053E00003F094FF01E003F06FF8069B002B4BD015
:1053F000201C5F4902F062FF564D50262978092093
:105400000F22331C4A434B434143201C009100218F
:1054100001F0EAFD201C574902F050FF0E272B78BF
:105420003A1C5A43201C7343002103F0AFF82B7839
:1054300018225A43201C7343002103F0A7F82B784D
:10544000012B0FD95F43201C7A1C7343002103F00A
:105450009DF82B7818225A43201C013273430021F7
:1054600003F094F8201C444902F028FF394B112224
:105470001B78201C59005A4302F072FF0399201C2C
:105480009531FF3108F0CAFF3C4C29A8231CFC339E
:105490001A6E07231340032B03D8012103F070FF7A
:1054A00002E0002103F06CFF1034201C03F012F81E
:1054B000061C29A803F00EF8503E731E9E410136CB
:1054C0007043C0B2049029A803F014F8051C201CF6
:1054D00003F000F8754376007642F6B23718049868
:1054E000EDB23F1A201C03F005F832180498521B45
:1054F00003B2FFB22DB239B20093201CD2B2019593
:1055000029AB04F0DFF81D48042100F03DFE00281F
:1055100000D15AE70398383007F0FEFE03980123C4
:10552000009301930799089A099B103003F042FFFA
:1055300029A803F0DBF837B0F0BD0AA810490AF03B
:1055400052FD002800D112E70120069005902FE7B8
:1055500098070100240A00201C0300203C040000DE
:105560000C0A01003B0A0100310A01004608010053
:1055700068CC000068520000FFFF00009007002088
:10558000360A0100F0B5CA4B041C1A780227CA205B
:10559000BA43400099B01A702018C64909220090F9
:1055A0000AF024FC9E230026FF33E654C22328225F
:1055B0005B00E254231C0121FC33D966AD238B40F0
:1055C000FF22E254B8225200A218101C029200F0EE
:1055D000D9F9029800F024FB201C00F07BFD201C70
:1055E00000F088FD231C3C33181C391C251C01933A
:1055F000103500F0A5FF0198032101F0F9F9311CE5
:10560000281C02F031FEAC4801210170281CAB4976
:1056100002F054FE321C201C391CFFF7D3FD321C53
:10562000A749281C02F080FE281C02F063FF0390AB
:10563000281C02F04FFAA04B311C1A784243039801
:10564000831A1AB2281C02F08BFE9E49281C08F00F
:10565000D3FE201CFEF76CFE9B4E9C4A8C21C90099
:1056600070183B1CB1181A2207F00AFA00281ED045
:10567000974BF01806F006F90121301C07F096F858
:10568000011E08D09248311C3718381C05F0B9FEAD
:1056900000280CD005E0301C07F088F80028F1D174
:1056A00005E0381CFEF71AFE002800D0F3E00022C7
:1056B000281C884902F038FE8749281C08F0AEFEF5
:1056C000201CFEF735FEFA20800008F075FA281C31
:1056D0007A49002202F028FE281C002102F0C4FDB5
:1056E0007B497718381C0099FEF7E9FD002808D19E
:1056F0006A4610745074391C04A8009A012306F0FD
:1057000095F90023684603744374CA235B00E35C85
:105710002F2B0ED19623FF33E35C002B09D16C496C
:105720007718381C06F0AEF8381C311C05F069FEFD
:1057300015E0674A04AFB618381C311C009A0123E3
:1057400006F0A7F800280AD03A7870231A4206D04B
:10575000331C07CF07C307CF07C307CF07C35F4A71
:105760000199009B04A805F097FA261C049BB83603
:10577000201C336005A9BC30FEF7C8FD12A80278D2
:10578000231CF03349211A7069440A7815A85A700D
:10579000139A149BF26333640288231CBE33DA87A6
:1057A00006AFFA8F0233DA871699179A84235B00C3
:1057B000B164F2640199E618494A4A4B04A805F01D
:1057C0006BFA0498842386215B004900E05060183E
:1057D00005A9FEF79BFD12ABA0201A784000231804
:1057E00049211A70694442200A78FF3023181A7040
:1057F0001399149AF163326415AB87201A8840001C
:105800002318DA878821FA8F49006318DA87169AF5
:10581000179B271C2021B264F364301C324A0523F5
:10582000383705F055FA381C07F01EFD301C0121F1
:1058300005F0E8FC002802D0381C07F0B1FD00217B
:10584000301C05F0DFFCC1B2381C07F0C7FD032196
:10585000301C05F0D7FC05F073F90421301C05F06D
:10586000D1FC224B195C029800F0AEF9019805F0CA
:1058700061F91F4B1B78D80705D5201CFFF7EAFC00
:10588000201CFFF739FD201CFEF767FD281C02F0E5
:105890001BFE19B0F0BD281C0022164902F044FD81
:1058A000281C154908F0BAFD201CFEF741FD0EE743
:1058B00000100040400A0100240A0020FFFF000001
:1058C00068CC00004D0A01001C0300206C0400009D
:1058D0003C040000E4D80000750A0100590A0100E8
:1058E000620A0100700A0100C8070100EC0901000A
:1058F00038040040688600007D0A01000A4B1A68DF
:10590000002A0CD1EFF310800021084A884205D10B
:1059100072B6BFF35F8F06480170012111701A68DB
:1059200001321A607047C046300900203409002057
:10593000C4000020084B1A68013A1A601B68002B4B
:1059400009D1064B1B78002B05D0054B01221A709C
:10595000BFF35F8F62B67047300900203409002022
:10596000C400002010B5041C8068002801D00AF093
:1059700019FA06202056002802DB002108F008FC56
:10598000201C10BD10B5041C06202056002807DB83
:10599000012108F0FDFB06202056002108F052FCF2
:1059A0000123637010BD70B5041C80680E1C0028B4
:1059B00001D00AF0F7F9237BE57BED1A6B1E9D41C0
:1059C00003357543ADB2A580281C0AF0E1F9A0604B
:1059D000002805D000212A1C0AF011FA668001E097
:1059E000A080608070BD037B70B5C57B8C11ED1A03
:1059F0006B425D410A1103238E101E401C401A4069
:105A00000B4046738373FF2600238E425B41037075
:105A10008368EDB2C4730273002B07D0A21A5342FD
:105A20005341AB4202D04188FFF7BDFF70BD00007B
:105A3000F8B58368041C002B00D168E008F08AF8F0
:105A40002369C01A3128F9D972B60623E3561827FC
:105A50005F432F4D0121EB195B68A6889940A3682D
:105A60007D5D9E195A1C18782A4BED01EF182A4BC0
:105A7000ED1880233960C046C046C046C046C046C7
:105A8000C046C046C046184215D0C046C046C046B3
:105A9000C046C046C046C046C046C046C046C046D6
:105AA000C046C046C046C046C046C046C046C046C6
:105AB000C046296014E02960C046C046C046C046C2
:105AC000C046C046C046C046C046C046C046C046A6
:105AD000C046C046C046C046C046C046C046C04696
:105AE0005B0809D0C046C046C046C046C046C04656
:105AF000C046C046C046BDE762B672B6B24202D2E8
:105B000010780132B5E762B608F024F82061F8BDDC
:105B100020150100184400411444004138B5437871
:105B2000041C0D1C002B06D006202056002802DB8A
:105B3000002108F02DFB6378A571002B07D0281CED
:105B4000012108F025FB281C002108F07BFB38BD53
:105B500070B5041C00200E1C6070191CE071A06060
:105B60002061201C151CFFF73EFF311C201CFFF795
:105B70001AFF201C291CFFF7D1FF201C70BDF0B5B7
:105B800005AC257844888C421BD9C479002C05D0FB
:105B9000624363436543120A1B0A2D0AC47B077BD9
:105BA0008668A74203D103246143711803E089008A
:105BB000711800260E55047B0A55427B8B54837B5B
:105BC000CD54F0BD4088704770B50B1C4D1CC17999
:105BD000EDB2041C8D421BD001398668C9B2002089
:105BE000814208D0FF2B01D10A4801E02802013888
:105BF0000AF02EF880B2331C9A1BA18892B291420F
:105C000005D91A78424312121A700133F4E7E5718C
:105C100070BDC046FFFF0000C0790138C0B27047B8
:105C200008B50021828880680AF0E9F808BD10B53F
:105C3000041C00F0B5F8201C10BD41707047817045
:105C4000704708B5011C303000F0B2F808BDF7B558
:105C500008AC267809AC2478A4460AAC24780094D1
:105C60000124A64204D00425022E02D0251C00E007
:105C7000022504720024071C447284728473C47366
:105C800044618461C461009C08370197447367468E
:105C90006446C67207730382002C02D01C1C6C433E
:105CA0006118009F4161002F01D05D43AA188261F5
:105CB0000199203000F07CF9F7BD08B5011C2031B6
:105CC000303000F0C9F908BD08B5303000F008F9EF
:105CD00008BD08B5303000F029F908BD92008018E1
:105CE00041637047012330308B40191C037C044A08
:105CF0000B4303740378D05C0143D1547047C04612
:105D0000A409002038B5FFF7F9FD1F4B1F4A198C75
:105D10000F231940890088581D4C02781D4D1340EF
:105D20001D4A137002781D4B1201A418AA18197885
:105D300064885288C9B2A21A42610C1C0122144024
:105D400007D01A7010234374037C134218D04368A1
:105D500013E00222114206D01A70037C44741342ED
:105D60000ED0836809E00422114209D01A7006237C
:105D70004374037C134203D0C368002B00D09847C0
:105D8000FFF7D8FD38BDC04600480041900900200B
:105D900090120020400900203F4800414E48004139
:105DA00000230322037043708270C3700371704735
:105DB000F8B5041C0D1CFFF7A1FD404F3B78002BEC
:105DC00016D13F4B20215A690A435A61DA691021E2
:105DD0000A43DA613B4B02211A888A433A491A8006
:105DE00001221A80596339499963394919803A70F7
:105DF000FFF784FD7B6800260122134209D17B68EE
:105E0000111CB1400B437B603B7A013B3B72171C7A
:105E100005E00136F6B25B08052EEDD10027FFF74D
:105E200089FD002F01D0FF2E03D1FFF783FD142041
:105E300042E00F27331C27493B4026700B70264B4E
:105E400002211A781F4E8A431A7001221A70FFF736
:105E500055FD237801211F401E4B1F7022783369A6
:105E600091408B4333616A78FC2312029B011340FB
:105E70002A78602152010A40A9781343C02289057B
:105E800012040A401343EA78002A04D007210A408A
:105E900008210A4313432A79002A01D01022134310
:105EA0007364FFF747FD227800250C4B9200A56133
:105EB000D450FFF73FFD281CF8BDC046C8000020A5
:105EC00000040040004800419012002040090020DA
:105ED000020F00003F480041404800419009002067
:105EE00038B5051CFFF70AFD6C7CE4B2052C14D014
:105EF0000C4B2A78012158689140084203D1FFF7E2
:105F000019FD1F240BE0586892008843197A5860E5
:105F100001311972044B0024D450FFF70BFD201CF3
:105F200038BDC046C80000209009002038B5041CC8
:105F3000FFF7E4FC657CEDB2052D02D1FFF7FAFC1A
:105F400028E0A2695388002B03D1FFF7F3FC172543
:105F500020E0114B40221A6022780F231A400F4B89
:105F600000251A7023780E4AD25C07231A400D4B85
:105F70001A702078052363740B4B0001C018A169C7
:105F8000102209F033FF094B02211A780A431A70D4
:105F9000FFF7D0FC281C38BD00E100E03F4800417D
:105FA000A40900204D4800419012002040480041C3
:105FB000028870B50C7801231C409A43224302806A
:105FC0004D7804880322154006269D40B4432C4397
:105FD00004808D780488182615409540B4432C43DE
:105FE0000480CC78058822401402174A2A402243B4
:105FF00002800C790588154A1C40A4022A402243DD
:1060000002804C790588124A1C402A40E40222434F
:1060100002808A79048813401A030E4B23401343ED
:106020000380CA7907231A4003885203DB04DB0C80
:10603000134303800B894380CB6843600B69836003
:106040004B69C36070BDC046FFFCFFFFFFFBFFFF55
:10605000FFF7FFFFFFEFFFFF021C8369407CC0B228
:1060600005280AD0002B02D19161181C05E0D868E0
:10607000002801D0DB68FAE7D960704708B5024B09
:106080001B68984708BDC046F43F000008B5064BA2
:106090001A68064B9A4202D8FFF7F0FF03E0044B60
:1060A000081C1B68984708BDFC3F00000100010068
:1060B000E83F000008B502480121FFF7E7FF08BDEF
:1060C000E908002008B502480221FFF7DFFF08BDFC
:1060D000E908002008B5064807F018FC192001213E
:1060E00008F056F81920012108F0ACF808BDC046A8
:1060F000A00B002073B500246B465C711C711E4917
:10610000019A061C1D48009107F028FC1920211C4B
:1061100008F098F81023013BFDD1184D0121281CEF
:1061200007F052FC0121041C192008F08BF8281CF0
:1061300007F030FC331C0022211C012011410142D8
:106140000AD119880E4DA94201D809180EE00D4D4B
:10615000A9420CD118800AE01988002907D0094803
:10616000814201D1002101E001214942198001321F
:106170000233082AE0D173BD001BB700A00B00203A
:10618000FCFF0000FFFF00004900085A01384342AD
:106190005841C0B2704700004900034B085AC0186C
:1061A00043425841C0B270470100FFFF4900085AFE
:1061B0000132801A43425841C0B2704708B54900C5
:1061C000012A07D8435A0B4A013B9BB200209A424E
:1061D00040410AE0405A084B984208D0111C09F08F
:1061E0002DFD88B2013843425841C0B200E0002082
:1061F00008BDC046FDFF0000FFFF0000014B01226B
:106200001A707047B4090020F8B50F1C161C8021C5
:10621000A022041C1D1C02F0C5F8074B0122083304
:1062200023600023A762E6622565201C2375A27502
:1062300063632363F8BDC046D80E0100F8B5837DC3
:10624000002B03D00E4807F0BFFB18E0C3690824F9
:1062500080258269866B1768294202D03E4316600A
:1062600001E0B74317601A68C66B013C32431A60FD
:106270001A68C66B6D08B2431A60002CE9D1F8BDEC
:10628000A00B0020F0B5164C85B00F1C201C0A2175
:10629000151CFFF7D2FC201C0221FFF7D0FC201CAC
:1062A000FFF7CFFC00266B000125391C201C0D4A8E
:1062B000009601950296FFF7CAFC201CFFF7FDFC33
:1062C000094B2A1C201C09491E70FFF707FD201CE2
:1062D000291CFFF707FD201CFFF7FBFC05B0F0BDF4
:1062E000C009002028180042B4090020FD61000008
:1062F000436A416C1A680A431A60036A016C1A689F
:106300008A431A607047436A416C1A688A431A606C
:10631000036A016C1A688A431A607047036A026C48
:1063200019680A431A60704770B50B4B0B4D041C7B
:106330000E1C281C06CB07F011FB201CFFF7E3FF07
:10634000311C201CFFF77AFF201CFFF7E7FF281CF9
:1063500007F020FB70BDC046AC090020A00B002058
:1063600008B54B424B412121C91AFFF7DDFF08BD9B
:1063700070B50B4B0B4D041C0E1C281C06CB07F0F4
:10638000EDFA201CFFF7B4FF311C201CFFF756FF6D
:10639000201CFFF7C3FF281C07F0FCFA70BDC046A5
:1063A000AC090020A00B0020F7B50D78061C4C1C92
:1063B000002D27D02178301CFFF7B6FF62787F23AD
:1063C000111CA71C99431A40009101923C1C019A90
:1063D000BB18D9B2E2B2914205D02178301CFFF748
:1063E000C7FF0134F3E700991C1C002907D0187877
:1063F0005C1CFF2801D1FA20400007F0DDFB013DC5
:10640000EDB2D5E7F7BD0000F7B50027041C0191F8
:10641000C76487640121C06A07F0BAFEA06A01213F
:1064200007F0B6FEA06A182242433F4D3F4953573A
:10643000E06ADB015B1823621823434359573B484A
:10644000C901AA185268091801266162311C9140DD
:106450002164EB185B68321C9A40A37D6264BB42E6
:1064600008D0334807F052FA324B334A1F711A6092
:106470005F712DE0311C606B07F08AFE311C206BD0
:1064800007F086FE676B18237B439C465B572B48BF
:106490002649DB011A185B18E361236B1820584367
:1064A00047572649FF017B1820497F18A761674697
:1064B000E9194968371C8F40E7632D1868688640E2
:1064C000A6631069B84310611A69A06B82431A6110
:1064D000236A216C1A688A431A60206D00281AD03A
:1064E000012107F055FE0121206D07F0ABFEFA20D7
:1064F000400007F061FB0021206D07F0A3FEFA20A9
:10650000400007F059FB206D012107F09BFEFA20A7
:10651000400007F051FB019F002F03D0201C391CC5
:10652000FFF742FFF7BDC0462015010010440041AF
:10653000A00B0020AC09002000366E010044004191
:1065400038B50D1C1749041CFFF75EFF002D08D15C
:10655000201C1549FFF728FF0223A3640123E364ED
:1065600010E0012D0AD180236382201C0F49FFF720
:106570001BFF0223A3640323E36403E0201C0C49F4
:10658000FFF712FF201C0B49FFF70EFF022D07D16A
:10659000201C3621FFF7C8FE201CC021FFF7E8FEB3
:1065A000657538BD280F0100BB0E0100630F0100A7
:1065B000C80E0100900E0100F7B51E1C08AB1B7839
:1065C000041C0F1C2A210193151CFFF7ADFE201C93
:1065D0000021FFF7CDFEA26C201CBF18F9B2FFF717
:1065E000C7FE201C0021FFF7C3FEA36C201CF61879
:1065F000F1B2FFF7BDFE201C2B21FFF795FE201CFA
:106600000021FFF7B5FEE26C201CAD18E9B2FFF7E0
:10661000AFFE201C0021FFF7ABFE019BE26C201CAB
:106620009918C9B2FFF7A4FE201C2C21FFF77CFEAD
:10663000F7BD0000F0B589B004AFF860388D0D1CCF
:10664000161C36498022440092023B608A61221C5B
:106650000832D208D2006B469B1A9D467C6004AC7F
:10666000BC60002291B2814208D23B6851005C5A62
:10667000013264BA231CBC686352F3E7E9B24B1ED3
:10668000F2B21818C3B2501CC0B20090F868FFF7FD
:1066900093FF234C0A21201CFFF7CFFA0221201C74
:1066A000FFF7CDFA01250026201CFFF7CAFA019555
:1066B000009602967B68B9681A4A201CFFF7C7FA51
:1066C000201CFFF7FAFA184A201C167017492A1CDA
:1066D000FFF704FB291C201CFFF704FB144D154B8E
:1066E000281C06CB07F03AF9F868FFF701FE201CDA
:1066F000FFF7EFFA0C4A1378002BFCD0F868FFF78D
:106700000DFE281C07F046F9201CFFF7DDFA034CAC
:1067100080239B02BD46636105B0F0BD004400418B
:10672000C009002028180042B4090020FD610000C3
:10673000A00B0020AC09002073B5041C00292CDB41
:106740001020235E8B4228DD002A26DB1220235EE8
:10675000934222DDD2B2C9B2501C4B1CC0B2DBB294
:106760000090201CFFF728FF0C4D0D4B281C06CB7A
:1067700007F0F4F8201CFFF7BBFD0A4E201C3188FF
:10678000090AFFF75BFD3178201CFFF757FD201C3D
:10679000FFF7C4FD281C07F0FDF873BDA00B002017
:1067A000AC090020280A0020F0B5041C1D1C102094
:1067B000235E85B08B4233DD638A18B282422FDAC2
:1067C0005619864201DD9D1A2DB2D2B2CBB2511EAE
:1067D0004919C9B20091201C191CFFF7EDFE114B9D
:1067E000114E1F88301C3B0A0393104BFFB206CB9F
:1067F00007F0B4F8201CFFF77BFDADB2201C002D84
:1068000009D00399FFF71AFD013D201C391CFFF741
:1068100015FDADB2F2E7FFF781FD301C07F0BAF8C5
:1068200005B0F0BD280A0020A00B0020AC09002014
:10683000F0B51D1C038A041C18B285B0814232DAFF
:106840001227E65F96422EDD4E19864201DD5D1A63
:106850002DB2C9B24B1ED2B25B19DBB20092201C22
:10686000FFF7AAFE114B124E1F88301C3B0A039300
:10687000104BFFB206CB07F071F8201CFFF738FD74
:10688000ADB2201C002D09D00399FFF7D7FC013DC4
:10689000201C391CFFF7D2FCADB2F2E7FFF73EFD3A
:1068A000301C07F077F805B0F0BDC046280A00207C
:1068B000A00B0020AC090020F0B587B0041C0393A6
:1068C0000CAB00201E5E208A05B2A94246DA638A1C
:1068D0009C461BB29A4241DA039FCF19AF4202DDB8
:1068E000401A05B203959019984202DD6746BE1A18
:1068F00036B2D2B2C9B2501E039D4B1E8019C0B22F
:106900005B19DBB20090201CFFF756FE144B1B886E
:106910001F0ADBB204970593124F134B381C06CBAA
:1069200007F01CF8201CFFF7E3FC002E10DD039D90
:10693000002D0ADD201C0499FFF780FC013D201C7E
:106940000599FFF77BFC2DB2F2E7013E36B2ECE78A
:10695000201CFFF7E3FC381C07F01CF807B0F0BD63
:10696000280A0020A00B0020AC090020F7B5061C67
:1069700090B25A43D3179B0F9A18921052001B4B98
:1069800044008918A4B201948C461C688108331C09
:10699000002290B2884221D2500067463D5A0F2013
:1069A0002F1107407F003F5B01327FBA1F805F805D
:1069B0002F1C07407F003F5B7FBA9F80DF802F0B3B
:1069C0002D1228407F0040003F5B005B7FBA40BA39
:1069D0001F815F819881D8811033DAE7019B311CD8
:1069E0001AB25200B01809F001FAF7BDD400002025
:1069F00038B50D1C3621041CFFF796FC214B0321F2
:106A000029401970637D201C022917D0032926D044
:106A1000012909D0022B03D1C021FFF7A9FC16E000
:106A2000C821FFF7A5FC12E0022B03D1A021FFF73C
:106A30009FFC1DE0A821FFF79BFC19E0022B03D16E
:106A40000021FFF795FC02E00821FFF791FC627D31
:106A500080232382012A13D0A023638211E0022B1A
:106A600003D16021FFF784FC02E06821FFF780FC7E
:106A7000627D8023012A01D1238201E0A0222282AB
:106A8000638238BD1C0A002008B50548FFF7CFF81F
:106A9000044B054A1A6000225A711A7108BDC0469B
:106AA000C0090020AC09002000093D00F0B58FB0FE
:106AB00002AF1E1CF862181C151CB96202F026FCFD
:106AC000348A728A002C00D1C2E0002A00D1BFE0D3
:106AD000B37A012B00D0B5E0F96A1023C95E23B266
:106AE0003962994200D0ADE0F96A1223CB5E11B24F
:106AF00079618B4200D0A5E06D463D613D6A6946F3
:106B00006B000833DB08DB00C91A8D46C91A02ADD9
:106B1000013A8D46BD62D2B202AD0021FD61631E15
:106B20000092DBB2F86A0A1CFFF746FD4A4B4B485D
:106B300006CB06F013FFF86AFFF7DAFBA4B2484B66
:106B40007C6200241A6871690094B86A7B6A00F05C
:106B5000F5FC3D6AAC4208DABD6A6300EB181A889E
:106B6000013452BA1A80A4B2F3E77C6A0125A40862
:106B7000FC607D607D687C69A5424EDA39498023DE
:106B80009B028B61B96A7A6AF86AFFF77BFB3B6A02
:106B90007C6875696343DA17920FD3189B105B000A
:106BA000EB18BB612E4B00221968FB69FD6890B29F
:106BB000A8421ED2BC695000205A0F24051125405E
:106BC000BD606D006D5A01326DBA1D80251C0540F7
:106BD0006D006D5A6DBA5D80050B001220406D008E
:106BE00040006D5A405A6DBA40BA9D80D880083333
:106BF000DCE780231B499B024B611B4B1B78002B5E
:106C0000FBD01A48FFF760F87B68FC6901339BB240
:106C10007B60BB6ABC62FB61ACE7F86AB96A7A6AFE
:106C2000FFF730FB104B1B78002BFBD00F48FFF712
:106C30004BF8F86AFFF772FB084806F0ABFE3D69B7
:106C4000AD4605E0F86AB96A2A1C331C00F092FCD4
:106C5000BD460DB0F0BDC046AC090020A00B002021
:106C6000D400002000440041B4090020C0090020E5
:106C7000F0B58BB002AFB961FA603C22B95E041C7A
:106C800038203D5E181C1E1CF96102F03FFB238A70
:106C9000B96918B2B860814200DD4FE1E8172A18DF
:106CA0004240D14200D549E1628AF86811B2796167
:106CB000884200DD42E1F969C81709184140F868C7
:106CC000C84200D53AE1002D00D137E1F969002929
:106CD00000D133E1308A718A002800D12EE10029E9
:106CE00000D12BE100B23861A8420CD108B2844631
:106CF000F869844507D12368201C5D6BB969FA687F
:106D0000331CA8471AE138694000854200D00CE1E5
:106D100008B278604100F869884200D005E1B9689E
:106D2000A94200D001E17969814200D0FDE0B07A4A
:106D30007861002800D090E0684639693860386989
:106D40008900F960C10008316846401A854602A8EA
:106D5000F8616846401A8546013A02A9D2B2B96183
:106D600000927969013BDBB2201C0A1CFFF724FC6E
:106D7000744B754806CB06F0F1FD201CFFF7B8FAFE
:106D80007D693A6995420BDA70696A00125AF869AE
:106D9000AB0052BAC11801354A80ADB2C252F0E719
:106DA000BB68F9695B00C818FA687B6109F01EF8D6
:106DB00001257A68954239DA644A80239B029361FF
:106DC000228A201C520092B2F969FFF75BFA3B69F4
:106DD0006B43BB60002339698B420EDAB8689A00B6
:106DE000C11870694900095AB86949BA80184180C8
:106DF000B869013381529BB2EDE7BA697B69111C16
:106E0000D018FA6808F0F2FF802350489B024361D3
:106E10004F4B1B78002BFBD04E48FEF755FFFB690C
:106E2000B9690135ADB2F961BB61C2E7228A201CA4
:106E3000520092B2F969FFF725FA454B1B78002BF7
:106E4000FBD04448FEF740FF201CFFF767FA3E489E
:106E500006F0A0FD3B689D4670E07869012864D18A
:106E60006846F8603869013AC10008316846401A3E
:106E7000854602A8F8616846401A854602A9B961AC
:106E8000D2B20021013BDBB20092201C0A1CFFF7AA
:106E900093FB2C4B2C4806CB06F060FD201CFFF723
:106EA00027FAF86971693A690023FFF75FFD7D6988
:106EB0007B689D4222DA254B802292029A61228AC7
:106EC000201C520092B2F969FFF7DCF9B8697169C8
:106ED0003A692B1CFFF74AFD80201C49800248615B
:106EE0001B4B1B78002BFBD01A48FEF7EDFEFB690D
:106EF000BA690135ADB2FA61BB61D9E7228A201CBB
:106F0000520092B2F969FFF7BDF9114B1B78002BC3
:106F1000FBD01048FEF7D8FE201CFFF7FFF90A4807
:106F200006F038FDF868854608E00095F969201CF0
:106F30000191B969FA68331C00F04CF9BD4609B0FB
:106F4000F0BDC046AC090020A00B00200044004169
:106F5000B4090020C0090020014B083303607047CA
:106F600028120100F7B51F1C08AB151C0E1C0022CF
:106F7000995E03680191196A041C2A1C8C463B1C0B
:106F8000311CE0472368019A196A013A52198C466C
:106F9000201C311C3B1C12B2E0472368201CDA691C
:106FA000311C9446019B2A1CE047013F2368BE190F
:106FB00031B2DF692A1C201C019BB847F7BD37B5E9
:106FC000013B9B180C1C1BB2016800938D69231CAC
:106FD000211CA84737BD13B5013B04685B1800921C
:106FE0001BB2A469A04713BDF7B5009308AB0D1CF5
:106FF000171C0022995E061C01912C1C009AAB18EC
:107000009C420ADA3368301CD9693A1C8C46019BD1
:10701000211C0134E04724B2F0E7F7BD13B510217D
:10702000435E1224015F026800910021946A0A1CE9
:10703000A04713BDF0B5594A87B012680B1C002A4F
:107040004CD10A2918D1564B564D1978564B2D78EC
:107050001B785943554B1C880C19A4B21C80002D79
:1070600006D024B261181224005F814200DB1A802E
:107070004F4B00221A808DE00D2900D18AE049494A
:10708000474C0978494E002916D02778484D059776
:107090000027E95F474F8C463F7805994F43BC4432
:1070A0001021475EBC4507DD2A803F4A05991278CA
:1070B00051433288891831803D4D0022A95E002756
:1070C000F25F2678009607687E6CB047394B1A78D5
:1070D000237853432A889B182B805BE00A290BD125
:1070E000334B00211980917A2D4A304B12784A4354
:1070F000198852181A804DE00D294BD0157AA942F3
:1071000048D3517A994245D35D1B5168EDB2ED00E9
:107110006D18AC78E9780494049F214E244C002F1C
:1071200032D0002930D069798C461E49097800296F
:107130001CD0377803970027E15F0591614649B27B
:107140008C4604990F1C039967444F430599C9194C
:107150008C461021475EBC4508DB927A03990027D4
:1071600051432780114F3A88891839800F4F0022E8
:10717000A15E3A1C0027D25F377805920097076816
:107180007A6C9446059AE0472A79337853432288EB
:107190009B182380012007B0F0BDC046200A0020C4
:1071A000240A0020DB000020250A0020140A002009
:1071B0002C0A0020100A00207047000010B5044B74
:1071C000041C0833036007F0F9F8201C10BDC0460A
:1071D00028120100F0B59BB002AFB8657820F965C0
:1071E000C65F7C21181C7A651C1CCD5F02F08EF8EE
:1071F000BA6DFB6D128A10B27A64834200DD98E1A9
:10720000F11772184A40D34200D592E1BB6D5B8AF8
:1072100019B29C467B6D39658B4200DD89E1E91727
:107220006B184B40796DD94200D582E1002E00D118
:107230007FE1002D00D17CE1218A3962618A796386
:10724000396A09B2B964B1420CD1796B09B2A94269
:1072500008D1BD6DB86D2B68F96D5D6B7A6D231C1F
:10726000A84766E1F60FFE6016B2ED0FFE63FE6DF5
:10727000BD601DB2FD62002E07DAB1B24842891826
:1072800080B20DB23864FD640FE0FE6DFD6B7219C3
:10729000824206DD786C811B0DB20026FD643E64DF
:1072A00003E0FD6B0026FD643E647D6D002D07DA72
:1072B000AAB25142D31889B21EB239653E6310E0BA
:1072C0007D6DFE6A386DAB19834206DD61464B1B4E
:1072D0001DB200263D633E6503E0FD6A00263D6366
:1072E0003E65BD6DAB7A002B00D096E0FE6B6D461F
:1072F00073000833DB08DB00E81A85462689A37A89
:10730000BD6202ADBD637E62012B0AD1627A002AA2
:1073100006D0894B227A1B685200D35A238100E0A1
:107320002381BB6C00250133DA0FD3185B10BB61DE
:107330007D647D6C3E6B2BB2B34269DA3D6D7E6B32
:1073400028B21B1832B2181C5043F96A08F080FCAE
:10735000BE6880B2002E03D07B6B013B181A80B24E
:10736000BE69BD6C46434543734B7E611B68BE6B73
:10737000FD613B610025F86C2BB283422FDA396C3A
:10738000BA6C08B228185043F96B08F061FCFB682E
:1073900080B2002B03D03B6A013B181A80B2A17A5D
:1073A0003960002906D1FA69616910184000435A12
:1073B000338011E03A68012A0ED161697A69430885
:1073C0008918CB5C3968084200D11B090F22134091
:1073D0003A695B009B5A338001350236CBE77E6CFD
:1073E000F86DB5B2BE6D33683E6C31183E6D786D88
:1073F00009B23218FE6CAA18B0B20090019401359F
:107400005E6912B2B86DBB6BADB2B0477D6490E7F8
:107410007D6A2581BE6AB5468BE0012B00D088E0ED
:10742000A37A6D46FD61002B02D1FE69B54680E06E
:10743000FB6B3E6C0833DB08DB00E81A854602ADC7
:10744000BD62BB6CBD6C36B201337543DA0FD31825
:107450005B107E620026BB613D617E647D6C3E6B8D
:107460002BB2B342E1DA3E6D7D6B30B21B182AB20B
:10747000181C5043F96A08F0EBFBBD6880B2002D80
:1074800003D07B6B013B181A80B2BE693D6946434D
:10749000BD63BD6A7E610026F86C33B283422FDA89
:1074A000F96BB86B08F0D4FBF96880B2002903D0FF
:1074B0003B6A013B181A80B24208636979699446B5
:1074C0005A186346D25CC10700D41209786A0F23A8
:1074D0008446F86D1A408444B44460462978C00755
:1074E00004D599430A432A70013503E012010B4089
:1074F00013432B70B96BBA6C01368918B963CBE7AB
:107500007E6CF86DB5B2BE6D33683E6C31183E6D61
:10751000786D09B23218FE6CAA18B0B200900194CE
:1075200001355E6912B2B86DBB6AADB2B0477D6419
:1075300094E7BD4619B0F0BDD400002070B504AC8E
:1075400025785B004C1C0978C318984211D0002D97
:1075500007D00F2631404900895A01802178013433
:1075600003E00E117600B65A0680012675400230FF
:10757000EBE770BDF0B593B002AF1E1C7863181C2A
:10758000B9623A6301F0C2FE748A7D6BFC61288A9D
:10759000BD6A04B2318AA54200DD65E10AB29446B3
:1075A000AD18FD6300D55FE17D6B6D8ABD612AB2C8
:1075B0003D6B954200DD57E1FB691BB2ED18BD63E1
:1075C00000D551E1BD6A002D0DDAABB25D4259180C
:1075D000ADB289B2FD630D1C09B2A14200DD051CEC
:1075E000ADB27D620CE0FD6BA54206DDBC6A0025F4
:1075F000001B80B27862FD6302E000247962FC63C4
:107600003D6B002D0FDAFC69A8B24142001989B226
:1076100080B23962011C00B2904201DDBD69291CB3
:1076200089B2F96109E0BD6B00243C62954204DD3A
:10763000B8693C6B031B9BB2FB61B37A012B63D12E
:107640007D6BAA7A002A00D090E03489727A3C617E
:10765000002A06D0864B327A1B685200D35A3381F7
:1076600000E033817D6A3C6A2BB25B00FB606346BD
:107670000133DA0FD318FD6B5B1022B25A43BB61A2
:107680002BB2D90FCB185B10D318BB630024FD6954
:107690002BB29C4235DAFB686D460833DB08DB0011
:1076A000E81A8546F96B786A7269BB6BBD6002ADFA
:1076B0007D6185B288B2D1186D4BF8621A680123DA
:1076C0000340009378692B1CFFF738FF786BF96A49
:1076D0000368B86A0A1811B23A6A94463A6B009580
:1076E00094446046019602195D69786B12B27B6919
:1076F000A847BD68B869AD46BD6B01342D18BD63A0
:10770000C5E73C693481AFE0002B00D0ACE07D6B75
:10771000AC7A002C00D0A7E06546386A6D00BD63E6
:10772000614605B24D43FA6B13B2ED186D00F8696E
:1077300003B29C4200DB97E07B6BFA6B1868BB6A74
:10774000D1180AB2FA623B6A3A6B99180A19716940
:1077500012B24B19796A019600914169786B8C4697
:10776000F96AE047BA6B0134AD18E0E7012A7BD132
:1077700063460133DA0FD3187C6A5B107B6123B256
:107780000133DA0F3D6AD3185B102AB27C69FD6BB6
:107790003B6101336243BB602BB2D90FC91849105A
:1077A00051180133F962D90FCB185B10D31800249C
:1077B000BB61BC63FD69BC6B2BB29C4254DABD6AF1
:1077C0007469A9B2C80731D5BB686D46FD6007333F
:1077D000BD69DB086A466419DB00D01A221C8546A5
:1077E000013A10787C6002AB00223D69954209DBCA
:1077F0007C680001A55C2C11204398540132D2B260
:10780000281CF2E77C6BFD6B206849193C6A3D6BD4
:1078100009B26219BC6B7D6A121900950196446920
:1078200012B2786BA047FC68A54612E07D6B3B6BFB
:107830002868FD6B49193D6A09B2EA18BD6B5219F7
:10784000FD6A12B263197C6A019600944569786BEF
:10785000A847BD6BFC6A0135BD637D696419FC6294
:10786000BC696419BC61A5E7BD4611B0F0BDC04656
:10787000D4000020F0B5244B85B01D6800235900CA
:10788000695ADAB281423BD00133102BF7D1C300E1
:10789000DBB2C2100193FC231A4000120723984365
:1078A00002920023194A03901C1C5900695AFC26B5
:1078B000CF103E40029FD8B2BF1BFE17BF197740C2
:1078C000009707260F12B743039EF71BFE17BF1939
:1078D0007740009EF619CF000199FFB2CF1BB44646
:1078E000FE17BF1977406146CE19B6B2964201D352
:1078F000161C201C0133102B03D0041C321CD4E7AF
:10790000101C05B0F0BDC046D4000020FFFF0000F1
:10791000F0B58DB0019312AB1B7809920A9313ABAB
:107920000027DD5F01220B95019D0027ABB2D21A23
:107930005B005B4292B29BB2041C089102920793D7
:107940000597059F019D3BB2AB4278DA029D2BB2B1
:10795000002B0CDB019B013B1FB2079B01970233FD
:10796000029F9BB29DB2DB199BB207950293059DC6
:10797000029FADB26E00B6B2331C03330395FB1801
:107980000A9D9BB206960293ED0728D5089F099D94
:1079900001980B99BBB28EB2AFB285B2039A701C3C
:1079A0000493191C6B00C3180131206851187A1B0D
:1079B00009B2009712B2C7691BB2201CB847049FD6
:1079C000009AED1929B2069F039D2068F31C013A25
:1079D000521BFB18C66912B21BB2201CB0470A9D8D
:1079E000AD0728D5089F099D01980B99BBB28EB2AF
:1079F000AFB285B2039A701C0493191C6B00C318B4
:107A000001392068891A7A1B09B2009712B2C76936
:107A10001BB2201CB847049F009A7D1B29B2069F09
:107A2000039D2068F31C013A521BFB18C66912B271
:107A30001BB2201CB047059D0135059581E70DB0AF
:107A4000F0BD08B50368DB6A984708BDF0B589B09A
:107A5000171C0EAA041C0020155E0FAA0695002014
:107A6000155E9BB2AEB2049373005B4289B29BB2C7
:107A700005930391891905980BB20499079343184C
:107A8000069822680090916A201C8C463A1C07993F
:107A90001BB2E0470499F3190398069F059A013930
:107AA0004118013FD7198E1B31B23FB21EB20123DC
:107AB0000093201C321C2B1C0197FFF729FF022387
:107AC00000930197201C0799321C2B1CFFF720FF05
:107AD00009B0F0BD014B18787047C046250A002058
:107AE000002900D10121014B19707047240A0020A0
:107AF00008B503681B69984708BDF0B589B00193C4
:107B00000EAB1B780592019A069393B20122D21A0A
:107B10005B005B429BB292B20793002300900491FA
:107B200002920393039A13B2019A934200DB80E01E
:107B3000029A13B2002B0CDB019B013B1AB2079B8C
:107B4000019202339BB29AB20792029A9B189BB29F
:107B50000293039B029A9CB263000333D3189BB237
:107B60000293069B5B0715D5049A059B96B2019A72
:107B70009DB297B2711C61187A1909B212B20098BD
:107B8000FFF7B6FF6A1CBE19A21831B212B20098F4
:107B9000FFF7AEFF069B9B0715D5049A059B96B28F
:107BA000019A9DB297B2711C6118EA1B09B212B218
:107BB0000098FFF79DFF6A1EBE19121B31B212B268
:107BC0000098FFF795FF069B1B0715D5049A019BAC
:107BD00097B2059A9EB295B26A1CB91BA21809B257
:107BE00012B20098FFF784FF791E091B751909B2BC
:107BF0002AB20098FFF77CFF069BDB0715D5049A95
:107C0000019B97B2059A9DB296B2721E791B121B08
:107C100009B212B20098FFF76BFF791E091B751BA2
:107C200009B22AB20098FFF763FF039B0133039365
:107C300078E709B0F0BDF0B58BB0151C10AA041C94
:107C40000020175E11AA09910020115E9BB20391DA
:107C5000039A099992B202920298069389B243005C
:107C600005918A185B4206999BB207935E182368B8
:107C700010B2196A049036B28C46201C04992A1C52
:107C8000331CBFB2E047ADB27B1EEB189BB208932A
:107C900023680898196A02B28C46201C0499331C88
:107CA000E047029A079B5519DF1923682DB23FB2AE
:107CB000DE69201C09992A1C3B1CB04705980699CF
:107CC00023684618DA69B6B2711E9446201C2A1C35
:107CD0003B1C09B2E04701230093201C04992A1C95
:107CE000039BFFF70AFF02982A1CC343F61836B21B
:107CF00002230093201C311C039BFFF7FEFE089912
:107D0000029A04238D1A2DB20093201C311C2A1CC8
:107D1000039BFFF7F2FE08230093201C04992A1C02
:107D2000039BFFF7EAFE0BB0F0BD0000F0B587B093
:107D30001E1C0CAB049000201B5E0C1C991A151C19
:107D4000CA1789185140321BD0171218424091426D
:107D500008DD321C01211E1C131C221C01912C1C4D
:107D6000151C01E000220192B44205DD2A1C1D1CF5
:107D7000131C221C341C161C321B92B202925A1B7A
:107D8000D117501848400590029802B2D70FBF187B
:107D90007F10BFB29D4202DA0121039119E0124A1D
:107DA000039216E0019B0498002B15D0291C221C7D
:107DB000FFF79EFE05983F1ABBB29FB23AB2002A67
:107DC00005DA0399029A6D189F182DB2BFB20134DB
:107DD00024B2B442E6DD04E0211C2A1CFFF788FE31
:107DE000E8E707B0F0BDC046FFFF0000F0B58BB07C
:107DF000099119780890C81DC00803900720014018
:107E00000491141C04989A1C5B780821091AE31841
:107E1000C9B2DBB206910793079843B29C4237D0B0
:107E20000999161C02910027039B321C9F422CD2F9
:107E300031787B1C0191DFB20025029AEBB2D2B2FD
:107E4000039899180592009349B2874206D1069A81
:107E5000934203D1049B591849B213E0019843B2ED
:107E6000002B03DA0898221CFFF742FE0199009AC2
:107E70004B000599DBB2013151180135019349B22C
:107E8000082DDAD101360291CEE7013464B2C3E79E
:107E90000BB0F0BDF0B58BB00491059211A910AAFA
:107EA000097812780191071C114305D102680499E1
:107EB000D46B059AA04768E01C7858780233069383
:107EC000E31DDB10079303231A4000900392002563
:107ED000EAB253B20292A34257DADA17520FD2181B
:107EE000D210D2B208922A4A134004D50822013B8C
:107EF0005242134301335BB280221A410992002699
:107F0000F2B2009953B28B423DDA079908984B437D
:107F100041B20698C3185B5C0999194231D0039BA2
:107F2000022B08D0032B0ED0012B12D1631E5B1B3A
:107F3000111CDAB20EE0009A611E013A491B921B35
:107F4000C9B2D2B206E00099029A0139891BC9B2BE
:107F500000E00299019800280AD0C00702D5631EEC
:107F6000591AC9B2019B9B0702D50098821AD2B256
:107F70000598049B1218C91849B252B2381CFFF771
:107F8000B7FD0136BCE70135A2E70BB0F0BDC04636
:107F900007000080F0B593B01E1C18AB1C788E4B08
:107FA000051C1B6804910592002B00D09BE010205B
:107FB0002B5E8B4200DC0DE112216B5E934200DCF4
:107FC00008E1864B049A1B786343D318002B00DC2E
:107FD00000E1834B05981B786343C318002B00DC3A
:107FE000F8E0804B1B78002B03D1AF2E01D901366E
:107FF000F6B273B2002B01DA203EF6B200210691F0
:10800000764A0698127843B2934200DBE2E0013AE6
:10801000934206D0744972430968C918895C039178
:1080200001E0002203929BB209936343049800216C
:1080300080B2C3189BB208900A930791079B5AB26B
:10804000674B1B789A4249DA039BDB0719D5012C51
:108050000AD10998089BC118059809B2121812B2E2
:10806000281CFFF745FD31E00A9B624319B2059BCE
:108070002868D21823B20093876A12B2281CB84726
:1080800024E05A4B19885A4B1F88B9421ED01980D8
:10809000012C0AD10998089BC118059809B2121839
:1080A00012B2281CFFF724FD0EE062430A99059BDB
:1080B00009B20B91D218296823B20093886A12B2D0
:1080C00084460B99281CE047494B1F80079B039A65
:1080D00001335208DBB203920793AFE7069B0133EB
:1080E000DBB206938CE71A7A5968B61AF6B21B68A7
:1080F000F60076183288F07871790E93B378B679F5
:10810000039208930F9009910A96012C04D973B237
:108110004FB29BB2BFB20D936743049A002692B24E
:10812000D719BFB20C92109704960F9AF3B29342EC
:1081300050D2059B0D989BB20B93331863430B9958
:10814000109ACB189BB21193079200270498FBB2A8
:1081500008991A18D2B28B4236D2530707D1039B23
:1081600003990E980133405C9BB2069003930699E5
:1081700009061ED5012C0FD1099A0C9B0A9851B201
:1081800059180B9B42B29A187918B21809B212B258
:10819000281CFFF7ADFC0CE0119A079812B202926E
:1081A00023B22A68009301B2906A029A8446281C7E
:1081B000E047069807994300DBB206930B199BB280
:1081C00001370793BFB2C1E74318DBB2013604930E
:1081D000B6B2AAE713B0F0BD200A0020100A0020B2
:1081E000250A00202A0A0020180A0020120A00206E
:1081F000280A002008B5837A012B07D1074B0F22EC
:108200001140188859700901197005E0044B4900A4
:108210001B68C95A00F014F808BDC046280A00209F
:10822000D400002038B5041CFFF7E4FF051C201C17
:10823000FFF707FC014B1D8038BDC046280A00200F
:1082400010B5837A041C012B07D1081CFFF712FB21
:10825000011C201CFFF7CEFF02E0024B188819809A
:1082600010BDC046280A002038B5041CFFF7E8FFFF
:10827000051C201CFFF7E5FB014B1D8038BDC046E7
:10828000280A002008B5837A012B09D10F23194051
:10829000074B5970090119701A88064B1A8005E0BE
:1082A000054B49001B68C95A00F008F808BDC046D4
:1082B000280A0020120A0020D400002010B5837A7A
:1082C000041C012B07D1081CFFF7D4FA011C201C49
:1082D000FFF7D8FF03E0024B1980024B198010BD55
:1082E000120A0020280A002008B5837A012B0BD13E
:1082F0000F2319401A400948094B41705A7009016F
:10830000120101701A7007E0064B49001B68520009
:10831000C95AD25A00F008F808BDC046280A002001
:10832000120A0020D400002070B5837A051C141CAA
:10833000012B0CD1081CFFF79DFA061C201CFFF72F
:1083400099FA311C021C281CFFF7CEFF03E0024BF8
:108350001980024B1A8070BD280A0020120A0020E2
:10836000024B1980024B1A807047C0462C0A00202D
:10837000140A0020074B084A196008780130107071
:108380004878064A023119600130054B107001220D
:108390001A707047180A0020100A0020250A0020D1
:1083A0002A0A0020114B70B508330360104B0025DA
:1083B0001D70104B45601D800F4BC2811D800F4BFF
:1083C00042820126818101820D49041C1E70FFF743
:1083D00075FF0C4BA5721E700B4B201C1D700B4BB8
:1083E0000B491D60FFF7C6FF201C70BD281201005D
:1083F0001C0A00202C0A0020140A0020240A002055
:10840000FFFF0000DB0000202A0A0020200A0020D5
:10841000700F0100074A08B500231380064A074978
:108420001380FFF7A7FF064A01231370054A137054
:1084300008BDC0462C0A0020140A0020700F01005D
:10844000240A0020DB00002038B5837A041C0D1CB0
:10845000012B07D1081CFFF70DFA011C201C00F0AE
:108460000DF809E0ED43FFF7FFFE201CA9B2FFF76E
:1084700025FF201CFFF7CEFF38BD000030B585B0CA
:10848000041C0D1C68460E49102207F0AFFCA37AAD
:10849000002B07D10B4B6D001B68201CE95AFFF71E
:1084A000D3FF0BE0201C291CFFF7BCFE6B46201CF1
:1084B000595DFFF7E7FE201CFFF7ACFF05B030BDAC
:1084C00012120100D400002008B50021FFF7BCFF04
:1084D00008BD0000B623064A5B00D35C002B04D124
:1084E0001023C25E5023002A00D0038A18B27047BE
:1084F00090070020B623064A5B00D35C002B04D112
:108500001223C25E4023002A00D0438A18B270476B
:1085100090070020054B826808330360002A03D0CF
:1085200043685A6182895A847047C046D812010054
:1085300008B503680021DB68984708BD084B8268CE
:10854000083310B5041C0360002A03D043685A6145
:1085500000225A84201CFFF7DDFF201C10BDC046FE
:10856000B8120100084B8268083310B5041C036080
:10857000002A03D043685A6182895A84201CFFF77D
:10858000DDFF201C10BDC04698120100F0B5CC18CC
:1085900083B0002C39DD1025445FA14235DA002A72
:1085A00033DB1226855F95422FDD857A002D2ED193
:1085B000CF43FF170F403DB2491B5B18BFB2611B91
:1085C000A4468B4200DD0B1CEB18F90727D4466943
:1085D000194964465443194D1C1964190D886400E7
:1085E0007F105B08A5539F420FD21024005F0988BB
:1085F00040104243BF189A18BF0092000804F319B4
:10860000B218014302C39342FCD103B0F0BD046829
:10861000013B5B1800921BB2A469A047F5E75443E5
:1086200005492D1946690C886D00AC531025445F2F
:108630000137A446BFB2CCE7280A0020FFFFFF7F26
:1086400070B54469002C32D0002930DB002A2EDBC3
:108650001023C55EA9422ADA1226835F934226DDE3
:10866000807A002806D16A43114B8918188849007E
:1086700008531CE001281AD10135EE0F75196D1051
:108680006A43CB0F5B185B109B189BB2E318084D35
:108690000F241A78014205D114401C702A78144323
:1086A0001C7004E0A2431A7069780A431A7070BD06
:1086B000280A002010B5041CFFF72CFF201C05F031
:1086C0007DFE201C10BD10B5041CFFF737FF201CD9
:1086D00005F074FE201C10BD10B5041CFFF742FF0E
:1086E000201C05F06BFE201C10BD000010B50E4BC9
:1086F000041C08330360431DDB7F002B0FD1C069CE
:10870000002802D003685B6898476069002806D09B
:10871000064B984203D907F045FB00236361201CF8
:10872000FEF71AFC201C10BDF8120100FFFFFF1F0E
:1087300010B5041CFFF7DAFF201C05F03FFE201CDB
:1087400010BD0000F0B589B000AF3C8FFB61BC618B
:108750006C46BC60857A1023C45E4369012D00D04D
:1087600080E00134E00F041964106243CE0F7618E4
:10877000761092199C18FA6B2940537A002B1FD15E
:1087800000290ED0FD69227829780F239A430B40E7
:1087900013432370BB690135013B9BB20134BB61BC
:1087A000FD61B869F96945082A1C201C07F01EFB09
:1087B000B969C90700D463E2FB6964195A5D4AE0EC
:1087C000002913D0FD69F9692B78FD6B0F22287AF7
:1087D00001311340984203D0207890430343237023
:1087E000BB690134013B9BB2BB61F961BD690023E8
:1087F0006E089AB2FD69B24220D2EA5CFD6B10119C
:1088000038612D7AC0B284460F21101C08407D616A
:10881000AC4506D160450FD0E25C8A431043E0547A
:108820000AE07D69A84206D1E25C38691140050181
:108830000D43E55400E0E2540133DAE7AB19BD69BA
:10884000A419ED0700D41BE21A78FB6B197A1309FF
:10885000994200D114E221780F239A430B4013432D
:1088600023700DE2B9480578FF2D2BD1B848068852
:10887000B848864226D1FD6BAD682802000A02D0B6
:10888000B54DA8420AD1201C5043BC6908184000CD
:1088900018186200F96907F0A9FAF1E16243891832
:1088A00049005B180020BC69A04200D3E8E1FC69E4
:1088B000F96B4500665B0A89B24200D05E53013015
:1088C000C0B2F0E76243891849005B18FB60BB69DE
:1088D00068460733DB08DB00C01A8546C01A6E46BF
:1088E0008546C01A6A4685466C467A613C6100231B
:1088F000BC69A34217D2FA6B11895A00002903D030
:10890000FC69A05A88420BD0FC691F21A25A3C691D
:108910001140F1545105890EE1547969D20ACA54C3
:108920000133DBB2E4E78A4B18888A4B98420CD1BA
:108930008A4B1878042800D9C9E0002307F030F9E1
:1089400035007A00C4000101430141051F230340A3
:10895000890E9C463960C00A0023BC69A342E7D255
:10896000F96B0A89002A04D0F9695C00645A9442C0
:1089700018D0F25664466243D417E40E3969A2183F
:1089800052113C68F254CA566243D417A40EA2187E
:108990009211CA547969CA564243D417E40EA218F8
:1089A0005211CA540133DBB2D7E7FF2D00D18EE05C
:1089B000BC69A34200D38AE0FA6B11895A000029EE
:1089C00003D0FC69A05A884226D0FC681F20A15A17
:1089D000F456EA43D2B208406C4350432018C417FF
:1089E000240E20180012F0543869C4564805800E31
:1089F0006C4350432018C417240E20183C69001201
:108A0000E0547C69C90AE056514368434018C117D5
:108A1000090E08180012E0540133DBB2C8E7FA6B04
:108A200011895A00002909D0FC69A05A884205D151
:108A30000133DBB2BC69A342F1D348E0F968F056D8
:108A40008C5A6843E20A6105890E94461F223960F8
:108A50001440FF214C430019414CA04204DCC217D2
:108A6000120E12181212D2B23969F254CA5639686B
:108A7000FF206A4341433B4851183F22814204DCB6
:108A8000CA17120E52181212D2B239696046CA546D
:108A90007969CA56FF2141436A4352181F21A242F5
:108AA00004DCD117090E89180912C9B27A69D154A8
:108AB000BEE7FA6B11895A0000290AD0FC69A05A56
:108AC000884206D10133DBB2BC69A342F1D3002353
:108AD000C3E0F9688A5A1F215405D00A0A40FF21D1
:108AE0004A43F156A40E6943521A0021FF2A01DDC0
:108AF0001112C9B2F1543969FF225443CA566A436C
:108B0000A41A0022FF2C01DD2412E2B23C6979692B
:108B1000E254FF225043CA566A43801A0022FF28BB
:108B200001DD0012C2B27C69E254CBE7FD6B5A0052
:108B30002989002918D0FC69A05A884214D1013330
:108B4000DBB2BC69A342F1D3C1E7C046DA00002022
:108B5000D8000020FFFF000001000100260A0020CD
:108B6000FF1E0000FF3E0000FD681F21AA5A5405A9
:108B7000D00A0A40F156A40E4A4300211F2A01DD03
:108B80005211D1B2F1543969CA56544300223F2CD4
:108B900001DDA411E2B23C697D69E254EA5650431A
:108BA00000221F2801DD4011C2B27969CA54C6E70C
:108BB000FD6B5A002989002909D0FC69A05A884216
:108BC00005D10133DBB2BC69A342F1D37FE7FD6875
:108BD000AC5A1F22151CA5436005E10A2C1CF55652
:108BE000800E551B6C43944206DDE517ED0E2C19E3
:108BF000621152421F32D2B23D69F254EC563F220A
:108C0000101A141B6043904207DDC417A40E2018ED
:108C100080114042021C3F32D2B27D693C69E85665
:108C2000E2541F22511A101A4143914207DDC8171E
:108C3000C00E4118491149420A1C1F32D2B279694B
:108C4000CA54BEE7FD6B5A002989002909D0FC6986
:108C5000A05A884205D10133DBB2BC69A342F1D3EB
:108C60000BE07D693C69E856E156C00249014118B4
:108C7000F056FD684118A952EDE7BD68AD4601E028
:108C8000BC68A546BD4609B0F0BDC046F0B58DB084
:108C90000290029D0191141C58781022AA5E019E38
:108CA00019788446964200DBE3E0029D6E8A37B273
:108CB000BC4200DBDDE0019840180590002800DC94
:108CC000D7E00198051C6544002D00DCD1E0C81DEB
:108CD000C010029D0490AD7A0233039565462819B1
:108CE000039D012D7CD1002C05DAC0B28446049886
:108CF00044431B1B002465466119B94202DD361B43
:108D0000F6B2B446019E059DF143C9173140CFB27A
:108D1000954200DD151CEDB20695019D79B2491B07
:108D2000C817400F4018C0101B18072001408020B2
:108D30000841C1B201320791D10F8A18521092B284
:108D40005443029E05927A08A418726900211219F0
:108D500001920122BA430892474A5078127809904A
:108D60000A920291029C644500D182E05A1C1C7850
:108D70000092089D019A07990394381C069EB04200
:108D800023D2039E0E40002D08D0002E0FD016785F
:108D90000F2434400A9E3443147008E0002E05D09E
:108DA00014780F26B443099E34431470013201260F
:108DB0007540F14006D10099009C0978A4190391EF
:108DC000009480210130C0B2D8E7029A01990132A3
:108DD000D2B20292059A049889181B180191C1E732
:108DE00007221140049D0822521AEDB2D2B2C0B23D
:108DF0000695079109920A900A9E72B2944238D061
:108E0000019D1E1C05950027069D331CAF422DD2E7
:108E100035787B1C0395DFB200250598E9B2C0B216
:108E2000069A04910918089049B2974207D1049B09
:108E30000998834203D1079D691849B213E003984A
:108E400043B2002B03DA0298221CFEF751FE03996D
:108E5000049A4B000899DBB2013151180135039394
:108E600049B2082DD9D101360591CDE7013464B25C
:108E7000C2E70DB0F0BDC046280A002037B506ACE9
:108E8000257807AC247800950194FFF703F837BDE7
:108E900070B5041C406900282FD0A37A002B1AD18A
:108EA000164A15882912EDB2A94208D11022A35EF4
:108EB0001225625F5A43520006F0A1FF0BE0658A5B
:108EC000218A694389B29DB28D4204D216885D0021
:108ED00046530133F7E7A37A012B0ED1074B6069A4
:108EE00019785B7819431022A35E1225625F534301
:108EF000DA0FD3185A1006F082FF70BD280A00203E
:108F0000F0B58BB0041C10A80578744800680028E0
:108F100004D00095201CFFF73DF8DCE01026A05F90
:108F2000814200DBD7E01227E65F964200DCD2E008
:108F30006B4E37782E1C7E438E19002E00DCCAE063
:108F4000684E36786E439619002E00DCC3E0022D81
:108F5000DFD1A67A012EDCD1634D2D78002D03D10F
:108F6000AF2B01D90133DBB25DB2002D01DA203B1A
:108F7000DBB25E4D6469AC460594644664785C4D32
:108F8000013F0394CE0749D4664636780130344316
:108F90006E782D78FFB23543C60FB446604440105A
:108FA000C0B2CE0F4243B4466144491052180599ED
:108FB00006975F438A18039242000592039A04972A
:108FC0000399531A4649DBB20978994200D882E0E6
:108FD000069EB34205D04749049F0968C919C95C78
:108FE00000E00021131C00263E4F3F78B74213D902
:108FF000CF0704D51C701B181C701B1808E0AC426E
:1090000004D01D701B181D701B1801E0059FDB1993
:1090100001364908F6B2E7E70132D1E7664636780D
:10902000013006966C782D780494C40F20184010F7
:10903000C4B26243CC0F611849100795059D5218C0
:10904000AA18FFB205920297421E5F43D2B2531C88
:109050005B00059908970993059E21488B1B0078B2
:10906000DBB2984237D9029EB34205D02148089F0F
:109070000068C019C05C00E000200B1C0024194DE2
:109080002D78A54225D95D781E78AC4667460F2518
:109090002F40AE43BC46C50704D5039F65463E43FB
:1090A000069F06E0039D049FBD420CD03E43079FF0
:1090B00065463D435F1C1E705D70BB185D701E7081
:1090C00001339B1801E0099D5B1901344008E4B2AB
:1090D000D5E70131C0E70BB0F0BDC046200A002043
:1090E000100A0020250A00202A0A0020280A002051
:1090F000120A0020180A0020044B41600833036064
:109100004B6983604B8C83817047C046D812010045
:1091100038B50368041C5B699847051CA0680028E3
:109120000AD0A3899D4202D86368586117E00C4BAE
:10913000984201D906F036FE281C06F029FEA060F0
:10914000002805D000212A1C06F059FEA58103E065
:10915000636858821882A0816368A4685C6138BD26
:10916000FFFFFF1F054B4160083303604B698360BD
:109170004B8C8381024B083303607047D812010087
:10918000B812010010B5041CFFF7ECFF034B201CC4
:1091900008332360FFF7BCFF201C10BD98120100AC
:1091A000F7B51E1C08AB1B7800920193431DDB7FB3
:1091B000041C0F1C002B25D1C069002803D00368B4
:1091C0005B68984701E060846061009A631C62827A
:1091D000019A0025278225811420DA77658305F01E
:1091E000E5F8211C071C01F011FBE761381C311C5C
:1091F00001F01AFB231DDD77034B0334FC331B6E98
:10920000013BE377F7BDC04690070020827A031C3C
:10921000012A09D11021425E5B8A0132D00F8018E9
:109220004010584380B207E00020824204D1188ADF
:109230005B8A5843400080B2704708B54068FFF72A
:10924000E5FF08BD70B54468051C201C0E1CFFF727
:10925000DDFF4643AB689E19666170BD10B544687A
:10926000201CFFF7D3FF63691818606110BD10B5AB
:109270004468201CFFF7CAFF238B584310BD08B574
:10928000421DD27F031C0020824202D1181C01F033
:1092900095FB08BD08B5431DDB7F002B01D101F014
:1092A000D1FB08BD08B5421DD27F031C00208242BD
:1092B00002D1181C01F0F2FB08BD08B5431DDB7F8D
:1092C000002B02D1C069FFF723FF08BD30B5857AB6
:1092D0001023C45E4369002D04D1624389184900FC
:1092E000585A11E0601CC40F201840104243CD0FA3
:1092F0006D186D10AA1892B2C80702D4985C0009C4
:1093000002E0985C0F23184030BD000010B5038BBD
:10931000041C002B0DD0012B2ED0421CD27F002A22
:109320002AD0C21CD17F154AFC32126ED2B29142B1
:1093300022D0124AFC32116EE21CD177221D002B82
:109340000BD10021D177628BE06901329A420DDBAB
:10935000036861831B6998470EE0D17F601C01316F
:10936000C9B2D177C07F8842EBD905E003689B681A
:109370009847638B0133638310BDC046900700207C
:1093800010B5038B041C012B10D0994201D3591E38
:1093900089B2E06961830368DB689847044BFC335A
:1093A0001A6EE31CDA7704340023E37710BDC0465D
:1093B00090070020F7B51E1C08AB1F8809AB1B786F
:1093C00000920193431DDB7F041C0D1C002B26D152
:1093D000C069002803D003685B68984701E0608497
:1093E0006061009A0E4B6282019A2381631C258280
:1093F0002783A6721020DA7704F0D8FF211C051C01
:10940000FFF7C0FE231D0021E561D977054B201C25
:10941000FC331A6EE31C013ADA77FFF7B1FFF7BDB0
:109420001FF8FFFF9007002038B5431DDB7F041CA9
:109430000D1C002B3CD1C069002802D003685B687A
:109440009847606900236384984204D0194B98427E
:1094500001D906F0A7FC2B88291C23826B880C31CC
:109460006382AB882383EA88631CDA772A892281A6
:10947000AB7AA372012B06D10F2A02D900236372A3
:1094800001E0227263726161102004F08FFF211CE1
:10949000051CFFF767FE231D0021E561D977064B08
:1094A000201CFC331A6EE31C013ADA77FFF768FFE1
:1094B00038BDC046FFFFFF1F9007002038B50D1CC8
:1094C00000210A1C041CFEF76DFF084B621D0833C7
:1094D0002360002363836361E3616384201C291C90
:1094E000D377FFF7A1FF201C38BDC046F81201005A
:1094F000F0B585B001930AAB1B888FB202930BAB1A
:109500001B7896B239B232B2041C0393FEF74AFFBD
:10951000154B002508332360631D65836561E56194
:109520006584DD77114B029A2381019B2283039A84
:10953000A372631C668227821020DA7704F036FF5C
:10954000211C061CFFF71EFE231DE661DD77084B7C
:10955000201CFC331A6EE31C013ADA77291CFFF752
:109560000FFF201C05B0F0BDF81201001FF8FFFF2F
:1095700090070020F0B58DB0049105921C1C9B7AD9
:10958000051C012B00D093E0837A002B00D08FE0E4
:10959000667A002E00D08BE0201CFFF7B7FE678AAA
:1095A0002A8A0897049F11B2238A8F4200DD85E042
:1095B00018B206903F18079700D57FE06F8A0B9787
:1095C0003FB2BC46059F674578DC089800B23F185B
:1095D000099773D4049F002F0DDAB8B24642C3181E
:1095E000B6B29BB207961E1C1BB28B4200DD161C46
:1095F000B6B20A960AE00798884205DD049F0796EE
:10960000D21B92B20A9201E00A930796059E002EA1
:109610000CDA089FB1B24B42C91989B20A1C09B2CF
:109620009BB2614509DD0B98021C06E009990023F5
:10963000614504DD0B9E059FF21B92B20892069ACB
:10964000079F0132D10F8A1852103FB21EB20697FF
:10965000131C73430B96069EFF0FBF197F100992D0
:10966000DF190026089A13B29E4227DA0498069959
:109670000B9A43180599501810216A5E80195043BF
:10968000181863696A69D9190D4B400010181A68D7
:109690000A9B03909BB20293079B01200340009317
:1096A0000398029BFDF74AFF099901367F18D9E715
:1096B000281C0499059A231CFDF75CFF0DB0F0BD32
:1096C000D4000020F7B508AC0026A55F1027DE5FA8
:1096D00009AC0027E45FAE4207D11227DE5FA64245
:1096E00003D10468646BA04703E000950194FDF783
:1096F00071FDF7BD08B54369C91801F08FFF08BDBA
:1097000037B50C1C01F08DFA01AD030A28706B709F
:1097100000022368000EA870C1B21B68201C984785
:10972000236869781B68201C9847236829781B6880
:10973000201C984737BD8B7A012B02D1042303707C
:1097400007E00B89002B02D11823037001E02023CE
:1097500003700B8A03814B8A82814381704700002A
:10976000F0B50D1C171C2A1C1032002189B0417065
:10977000041C101C019201F051FF281C01F066FA34
:10978000664B984200D0C5E004210198FFF7B2FF74
:10979000281C01F065FA6060281C01F061FAA070D5
:1097A000281C01F05DFA0290281C01F059FA208172
:1097B0003882281C01F054FA061C281C01F046FAD5
:1097C000012800D0A6E0281C01F040FAC0B22070A9
:1097D000042804D0182802D0202800D09AE0798AE2
:1097E000002908D06181301C09B206F0E3F980B28B
:1097F000A081388304E0012366817E82A3813B83BC
:10980000281C01F02DFA2378202B2DD1C31E5A429B
:109810005341DBB2002802D0002B02D17AE0002BAA
:1098200026D001981421FFF765FF0026281C01F0BF
:1098300017FAC3B2002B0CD1FF231B0218420AD126
:10984000FF231B04184208D1000E0323002807D071
:1098500004E0002302E0012300E00223A219937335
:109860000136042EE2D10BE0002853D1042B11D095
:109870000223A3730123E37300232374032363747C
:109880000023BB723B81A178019801F0C7FE012340
:1098900063703FE00C210198FFF72CFF281C01F0BA
:1098A000DFF9C0B2031C102800D910230299DBB2E3
:1098B0000E310198039301F0B1FE261C331B039A6D
:1098C000DBB2934221D22B68281CDB6898472B68B7
:1098D0000290DB68281C98472B680490DB68281CE2
:1098E00098472B680590DB68281C9847059A07ABBA
:1098F0001A70049A01365A70029A9A70079801F009
:109900007FF9FDF7B7FF7073D8E70123BB7200231F
:109910007B72B8E7201C09B0F0BDC046424D000084
:10992000407870474068704738B5101C0D1C141CF7
:109930000621103001F072FE281C211C01F098F95C
:1099400038BD027803899800042A03D11F304011E2
:10995000800005E0182A03D10322581C504390438D
:1099600070470000F0B54389828985B05A43037877
:10997000051C0C1C0292042B03D00026202B01D1C5
:1099800003E010262823009301E07C230093009B32
:10999000B700DF190E37FFB2AF70281CFFF7D1FFF9
:1099A000029B00214343FF180397271C1037381CE4
:1099B000019301F033FE02223F49381C02F0D6F831
:1099C0000398211C01F054F90020211C01F050F9EA
:1099D000A878211C01F04CF90098211C01F048F9ED
:1099E0002889211C01F044F90298211C01F040F95A
:1099F0000120211C01F045F92878211C01F041F9D2
:109A00002B78202B04D10320211C01F031F903E035
:109A10000020211C01F02CF90198211C01F028F9EB
:109A20000020211C01F024F90020211C01F020F964
:109A3000301C211C01F01CF9301C211C002E13D0FD
:109A400001F016F900271D4B7A001B68211CD05A23
:109A5000FFF756FE2368201C1B680021013798473A
:109A6000FBB2B342EFD301E001F002F92B78202BD7
:109A70001FD1FF200004211C01F0FAF8FF20000292
:109A8000211C01F0F5F8FF20211C01F0F1F8FF2066
:109A90000006211C01F0ECF80948211C01F0E8F84F
:109AA0001025013D0020211CEDB201F0E1F8002D50
:109AB000F7D1019805B0F0BD48130100D400002093
:109AC00042475273F0B58BB0171C041C01930591EB
:109AD000FFF737FF109D061C291C10310491081C4C
